{
  "contractName": "Exchange",
  "abi": [
    {
      "inputs": [],
      "name": "EBTBalance",
      "outputs": [
        {
          "internalType": "uint256",
          "name": "",
          "type": "uint256"
        }
      ],
      "stateMutability": "view",
      "type": "function",
      "constant": true
    },
    {
      "inputs": [],
      "name": "ethVault",
      "outputs": [
        {
          "internalType": "uint256",
          "name": "",
          "type": "uint256"
        }
      ],
      "stateMutability": "view",
      "type": "function",
      "constant": true
    },
    {
      "inputs": [],
      "name": "exchangeRate",
      "outputs": [
        {
          "internalType": "uint8",
          "name": "",
          "type": "uint8"
        }
      ],
      "stateMutability": "view",
      "type": "function",
      "constant": true
    },
    {
      "stateMutability": "payable",
      "type": "receive",
      "payable": true
    },
    {
      "inputs": [],
      "name": "makeExchange",
      "outputs": [],
      "stateMutability": "payable",
      "type": "function",
      "payable": true
    }
  ],
  "bytecode": "0x608060405234801561001057600080fd5b5061023a806100206000396000f3fe6080604052600436106100435760003560e01c80633ba0b9a91461004f5780635a20329c1461007a578063b1baf546146100a5578063b35cec16146100d05761004a565b3661004a57005b600080fd5b34801561005b57600080fd5b506100646100da565b604051610071919061014d565b60405180910390f35b34801561008657600080fd5b5061008f6100ed565b60405161009c9190610132565b60405180910390f35b3480156100b157600080fd5b506100ba6100f3565b6040516100c79190610132565b60405180910390f35b6100d86100f9565b005b600160009054906101000a900460ff1681565b60025481565b60005481565b346002600082825461010b9190610168565b92505081905550565b61011d816101be565b82525050565b61012c816101c8565b82525050565b60006020820190506101476000830184610114565b92915050565b60006020820190506101626000830184610123565b92915050565b6000610173826101be565b915061017e836101be565b9250827fffffffffffffffffffffffffffffffffffffffffffffffffffffffffffffffff038211156101b3576101b26101d5565b5b828201905092915050565b6000819050919050565b600060ff82169050919050565b7f4e487b7100000000000000000000000000000000000000000000000000000000600052601160045260246000fdfea264697066735822122046c9bf8916fd23abfa5ddc06e3652d2bb276c3b8dbf5da80a573fa9a86577e6764736f6c63430008010033",
  "immutableReferences": {},
  "source": "pragma solidity ^0.8.0;\n\ncontract Exchange {\n    uint256 public EBTBalance;\n    uint8 public exchangeRate; // How many EBT you get for 1 ETH\n    uint256 public ethVault;\n\n    receive() external payable {\n\n    }\n    \n    function makeExchange() public payable {\n        ethVault += msg.value;\n    }\n}",
  "sourcePath": "/Users/sbren/Documents/code/learning-solidity/erc20-basic-token/contracts/Exchange.sol",
  "compiler": {
    "name": "solc",
    "version": "0.8.1+commit.df193b15.Emscripten.clang"
  },
  "schemaVersion": "3.4.1",
  "updatedAt": "2021-05-25T19:30:08.908Z",
  "networkType": "ethereum",
  "devdoc": {
    "kind": "dev",
    "methods": {},
    "version": 1
  },
  "userdoc": {
    "kind": "user",
    "methods": {},
    "version": 1
  }
}