{
  "contractName": "Exchange",
  "abi": [
    {
      "inputs": [],
      "stateMutability": "nonpayable",
      "type": "constructor"
    },
    {
      "inputs": [],
      "name": "sellSideDepth",
      "outputs": [
        {
          "internalType": "uint256",
          "name": "totalAmount",
          "type": "uint256"
        }
      ],
      "stateMutability": "view",
      "type": "function"
    }
  ],
  "bytecode": "0x608060405234801561001057600080fd5b5060005b60058110156100e5576000604051806040016040528060058461003791906100eb565b81526020013373ffffffffffffffffffffffffffffffffffffffff1681525090806001815401808255809150506001900390600052602060002090600202016000909190919091506000820151816000015560208201518160010160006101000a81548173ffffffffffffffffffffffffffffffffffffffff021916908373ffffffffffffffffffffffffffffffffffffffff160217905550505080806100dd9061014f565b915050610014565b506101c7565b60006100f682610145565b915061010183610145565b9250817fffffffffffffffffffffffffffffffffffffffffffffffffffffffffffffffff048311821515161561013a57610139610198565b5b828202905092915050565b6000819050919050565b600061015a82610145565b91507fffffffffffffffffffffffffffffffffffffffffffffffffffffffffffffffff82141561018d5761018c610198565b5b600182019050919050565b7f4e487b7100000000000000000000000000000000000000000000000000000000600052601160045260246000fd5b610207806101d66000396000f3fe608060405234801561001057600080fd5b506004361061002b5760003560e01c806347de359614610030575b600080fd5b61003861004e565b60405161004591906100de565b60405180910390f35b6000805b6000805490508110156100cb5760008181548110610099577f4e487b7100000000000000000000000000000000000000000000000000000000600052603260045260246000fd5b906000526020600020906002020160000154826100b691906100f9565b915080806100c390610159565b915050610052565b5090565b6100d88161014f565b82525050565b60006020820190506100f360008301846100cf565b92915050565b60006101048261014f565b915061010f8361014f565b9250827fffffffffffffffffffffffffffffffffffffffffffffffffffffffffffffffff03821115610144576101436101a2565b5b828201905092915050565b6000819050919050565b60006101648261014f565b91507fffffffffffffffffffffffffffffffffffffffffffffffffffffffffffffffff821415610197576101966101a2565b5b600182019050919050565b7f4e487b7100000000000000000000000000000000000000000000000000000000600052601160045260246000fdfea26469706673582212209a6b139eb69bca9b681a087bd2f583a91a922be231836442e490637e9e35bccc64736f6c63430008010033",
  "immutableReferences": {},
  "source": "pragma solidity ^0.8.0;\n\ncontract Exchange {\n    struct SellOrder {\n        uint256 amount;\n        address seller;\n    }\n    \n    SellOrder[] internal sellOrders;\n    \n    constructor() {\n        for(uint i = 0; i < 5; i++) {\n            sellOrders.push(SellOrder(i*5, address(msg.sender)));\n        }\n    }\n    \n    function sellSideDepth() public view returns(uint256 totalAmount) {\n        totalAmount = 0;\n        \n        for(uint i = 0; i < sellOrders.length; i++) {\n            totalAmount += sellOrders[i].amount;    \n        }\n        \n        return totalAmount;\n    }\n}",
  "sourcePath": "/Users/sbren/Documents/code/learning-solidity/erc20-basic-token/contracts/Exchange.sol",
  "compiler": {
    "name": "solc",
    "version": "0.8.1+commit.df193b15.Emscripten.clang"
  },
  "schemaVersion": "3.4.1",
  "updatedAt": "2021-05-29T15:39:42.718Z",
  "devdoc": {
    "kind": "dev",
    "methods": {},
    "version": 1
  },
  "userdoc": {
    "kind": "user",
    "methods": {},
    "version": 1
  }
}